S0190000536D616C6C206170706C69636174696F6E2E737265635E
S11300000C942A000C9434000C9434000C943400A6
S11300100C9434000C9434000C9434000C9434008C
S11300200C9434000C9434000C9434000C9434007C
S11300300C9434000C9434000C9434000C9434006C
S11300400C9434000C9434000C9434000C9434005C
S11300500C94340011241FBECFE5D8E0DEBFCDBF21
S11300600E9436000C943E000C9400008FEF8ABB73
S11300701BBA91E08BB389278BBBFCCFF894FFCFDD
S9030000FC
