:107000000C942A380C9447380C9447380C94473821
:107010000C9447380C9447380C9447380C944738F4
:107020000C9447380C9447380C9447380C944738E4
:107030000C9447380C9447380C9447380C944738D4
:107040000C9447380C9447380C9447380C944738C4
:107050000C94473811241FBECFE5D8E0DEBFCDBF6A
:1070600010E0A0E6B0E0E4E1F2E702C005900D9286
:10707000A03EB107D9F721E0A0EEB0E001C01D921B
:10708000A236B207E1F70E9449380C9408390C94F3
:107090000038EF92FF920F931F93CF93DF9390915D
:1070A000E000892F8795882787958E568093E10089
:1070B000992329F10F2EF0E6EF2EF0E0FF2EF02DB0
:1070C00000E010E0C0E0D0E080E8F701A2EEB0E020
:1070D00001900D928A95E1F7B80180E090E042EED0
:1070E00050E00E94B238219680E8E80EF11C00586A
:1070F0001F4F8091E00090E0C817D90728F3C09196
:10710000E100CC23F9F040E850E06FEF70E082EE50
:1071100090E00E9401396091E000E0E86E9F8001FC
:1071200011244C2F50E0B801605A7F4F82EE90E05E
:107130000E94F838B801110F880B990B42EE50E00D
:107140000E94B23881E180935700E895E0E0F0E0DA
:10715000099580E090E0DF91CF911F910F91FF9012
:10716000EF900895CF92DF92EF92FF92CF93DF934B
:107170006B017C016FB7F894C60123E0F601209300
:107180005700E89507B600FCFDCFEA01C058DF4F75
:10719000DA0131E0FC01E41BF50BAF012C91FA019F
:1071A000EA0FFB1F11968C91119790E0982F88277A
:1071B000820F911D0C0130935700E895112412960F
:1071C000AC17BD0759F785E0F60180935700E895A5
:1071D00007B600FCFDCF81E180935700E8956FBFB3
:1071E0007894DF91CF91FF90EF90DF90CF9008954A
:1071F000FB01DC0102C001900D9241505040D8F7D4
:107200000895DC0101C06D9341505040E0F70895AE
:04721000F894FFCF20
:107214000C942A000C9434000C9434000C94340024
:107224000C9434000C9434000C9434000C9434000A
:107234000C9434000C9434000C9434000C943400FA
:107244000C9434000C9434000C9434000C943400EA
:107254000C9434000C9434000C9434000C943400DA
:107264000C94340011241FBECFE5D8E0DEBFCDBF9F
:107274000E9436000C943E000C9400008FEF8ABBF1
:107284001BBA91E08BB389278BBBFCCFF894FFCF5B
:040000030000700089
:00000001FF
